:030000000217667E
:0C176600787FE4F6D8FD758107021203BD
:10000300302E393627204F4C454420544553540055
:10001300323031342F30352F303100415343494989
:100023003A00434F44453A0000000000000000003E
:10003300002F000000000700070000147F147F1446
:1000430000242A7F2A1200626408132300364955CC
:10005300225000000503000000001C2241000000A4
:1000630041221C000014083E08140008083E08083A
:10007300000000A060000008080808080000606095
:100083000000002010080402003E5149453E0000D4
:10009300427F4000004261514946002141454B31B6
:1000A300001814127F10002745454539003C4A4982
:1000B30049300001710905030036494949360006F4
:1000C3004949291E0000363600000000563600005C
:1000D30000081422410000141414141400004122D7
:1000E300140800020151090600324959513E007CAF
:1000F3001211127C007F49494936003E4141412299
:10010300007F4141221C007F49494941007F090981
:100113000901003E4149497A007F0808087F000031
:10012300417F4100002040413F01007F08142241EC
:10013300007F40404040007F020C027F007F0408A4
:10014300107F003E4141413E007F09090906003E00
:100153004151215E007F0919294600464949493129
:100163000001017F0101003F4040403F001F20404C
:10017300201F003F4038403F00631408146300070A
:100183000870080700615149454300007F41410061
:1001930000552A552A55000041417F000004020101
:1001A30002040040404040400000010204000020DF
:1001B30054545478007F484444380038444444201D
:1001C30000384444487F00385454541800087E09CA
:1001D30001020018A4A4A47C007F08040478000092
:1001E300447D4000004080847D00007F102844004F
:1001F3000000417F4000007C04180478007C080460
:10020300047800384444443800FC2424241800189B
:10021300242418FC007C0804040800485454542087
:1002230000043F444020003C4040207C001C204010
:10023300201C003C4030403C004428102844001C53
:10024300A0A0A07C004464544C441414141414144B
:10025300000000000000000000000000000000009B
:10026300000000F800000000000000333000000030
:1002730000100C06100C0600000000000000000037
:1002830040C07840C0784000043F04043F040400A9
:10029300007088FC08300000001820FF211E0000B9
:1002A300F008F000E018000000211C031E211E00CE
:1002B30000F00888700000001E2123241927211054
:1002C30010160E00000000000000000000000000F7
:1002D300000000E01804020000000007182040009E
:1002E30000020418E000000000402018070000008E
:1002F300404080F0804040000202010F01020200F2
:10030300000000F0000000000101011F01010100D5
:10031300000000000000000080B07000000000003A
:1003230000000000000000000001010101010101C3
:10033300000000000000000000303000000000005A
:10034300000000008060180400601806010000002F
:1003530000E010080810E000000F102020100F002C
:10036300001010F8000000000020203F20200000B3
:10037300007008080888700000302824222130000B
:1003830000300888884830000018202020110E0013
:100393000000C02010F8000000070424243F2400BC
:1003A30000F80888880808000019212020110E0091
:1003B30000E0108888180000000F112020110E00A3
:1003C30000380808C83808000000003F000000009B
:1003D3000070880808887000001C222121221C005C
:1003E30000E010080810E0000000312222110F0085
:1003F300000000C0C000000000000030300000001A
:100403000000008000000000000080600000000089
:1004130000008040201008000001020408102000A2
:1004230040404040404040000404040404040400ED
:100433000008102040800000002010080402010082
:10044300007048080808F000000000303601000082
:10045300C030C828E810E0000718272423140B0035
:100463000000C038E0000000203C230202273820AF
:1004730008F8888888700000203F202020110E0093
:10048300C03008080808380007182020201008008A
:1004930008F808080810E000203F202020100F0073
:1004A30008F88888E8081000203F2020232018003F
:1004B30008F88888E8081000203F200003000000A7
:1004C300C03008080838000007182020221E020048
:1004D30008F808000008F808203F210101213F2007
:1004E300000808F8080800000020203F2020000032
:1004F30000000808F8080800C08080807F00000022
:1005030008F888C028180800203F2001263820005A
:1005130008F8080000000000203F202020203000C1
:1005230008F8F800F8F80800203F003F003F2000DB
:1005330008F830C00008F808203F200007183F00E3
:10054300E01008080810E0000F10202020100F0012
:1005530008F808080808F000203F21010101000005
:10056300E01008080810E0000F18242438504F004A
:1005730008F8888888887000203F2000030C30200A
:1005830000708808080838000038202121221C0048
:10059300180808F8080818000000203F2000000091
:1005A30008F808000008F808001F202020201F007A
:1005B3000878880000C83808000007380E010000DA
:1005C300F80800F80008F800033C0700073C0300A4
:1005D300081868808068180820302C03032C30200A
:1005E3000838C800C83808000000203F2000000079
:1005F30010080808C83808002038262120201800D1
:10060300000000FE020202000000007F40404000A4
:10061300000C30C000000000000000010638C000DC
:1006230000020202FE000000004040407F00000084
:1006330000000402020204000000000000000000A9
:1006430000000000000000008080808080808080A7
:10065300000202040000000000000000000000008F
:1006630000008080808000000019242222223F2085
:1006730008F8008080000000003F112020110E00C8
:100683000000008080800000000E11202020110057
:10069300000000808088F800000E112020103F2009
:1006A3000000808080800000001F2222222213008D
:1006B300008080F0888888180020203F20200000D8
:1006C3000000808080808000006B9494949360008D
:1006D30008F8008080800000203F210000203F2098
:1006E30000809898000000000020203F2020000098
:1006F300000000809898000000C08080807F000088
:1007030008F8000080808000203F24022D30200064
:10071300000808F8000000000020203F202000000F
:100723008080808080808000203F20003F20003F29
:100733008080008080800000203F210000203F2037
:100743000000808080800000001F202020201F00E8
:10075300808000808000000080FFA12020110E0017
:100763000000008080808000000E112020A0FF8008
:10077300808080008080800020203F2120000100B5
:10078300000080808080800000332424242419000A
:10079300008080E0808000000000001F2020000017
:1007A3008080000000808000001F202020103F2058
:1007B300808080000080808000010E3008060100E8
:1007C30080800080008080800F300C030C300F008D
:1007D30000808000808080000020312E0E312000B8
:1007E300808080000080808080818E7018060100E8
:1007F30000808080808080000021302C2221300006
:1008030000000000807C020200000000003F404026
:1008130000000000FF00000000000000FF000000D7
:100823000002027C800000000040403F0000000006
:1008330000060101020204040000000000000000A1
:100843000000F010101010FF10101010F000000046
:100853000000000000000000000000000000000095
:1008630000000F04040404FF040404040F00000048
:100873000000000000000000000000000000000075
:100883004040405F555555755555555F40404000B4
:100893000000000000000000000000000000000055
:1008A3000040200F094989790909090F20400000F8
:1008B3000000000000000000000000000000000035
:1008C30000FE02424ACA4A4ACA4A4A4202FE00009B
:1008D3000000000000000000000000000000000015
:1008E30000FF40504C4340404F50505C40FF0000DD
:1008F30000000000000000000000000000000000F5
:100903000000F888888888FF88888888F8000000B5
:1009130000000000000000000000000000000000D4
:1009230000001F080808087F888888889F80F000D7
:1009330000000000000000000000000000000000B4
:1009430080828282828282E2A2928A868280800070
:100953000000000000000000000000000000000094
:10096300000000000040807F000000000000000045
:100973000000000000000000000000000000000074
:100983002424A4FEA3220022CC0000FF00000000C8
:100993000000000000000000000000000000000054
:1009A300080601FF00010404040404FF020202001C
:1009B3000000000000000000000000000000000034
:1009C300101010FF109008888888FF888888080016
:1009D3000000000000000000000000000000000014
:1009E3000444827F01808040432C1028468180008C
:1009F30000000000000000000000000000000000F4
:100A03000003050911FF118905C300E000F000F898
:100A1300000000000000004428FF11AA4400000069
:100A230000000000000000000000000000000000C3
:100A330000000000000000000000000000000000B3
:100A430000000000000000000000000000000000A3
:100A5300000000000000000000008301384482927F
:100A630092740183000000000000007C44FF017DBC
:100A73007D7D017D7D7D7D017D7D7D7D7D01FF0012
:100A8300000000000001000100010001000100015D
:100A93000000000000000000000101000000000051
:100AA3000000000000000000000000000000000043
:100AB3000000000000000000000000000000000033
:100AC3000000000000000000000000000000000023
:100AD3000000000000000000000001010000000011
:100AE30000000101000000000000000000010101FE
:100AF30001010101010101010101010101010100E4
:100B030000000000000000000000000000000000E2
:100B13000000000000000000000000003F3F03034E
:100B2300F31311111111111101F11161810101016E
:100B3300816111F1010101014141F1010101010152
:100B4300C1211111111121C1010101014141F10122
:100B53000101010101010101011111111111D3332E
:100B630003033F3F000000000000000000000000FE
:100B73000000000000000000000000000000000072
:100B83000000000000000000000000000000000062
:100B9300000000000000000000000000E0E0000092
:100BA3007F01010101010100007F00000106180619
:100BB3000100007F0000000040407F404000000033
:100BC3001F2040404040201F0000000040407F4065
:100BD3004000000000600000000040300C030000F3
:100BE3000000E0E000000000000000000000000042
:100BF30000000000000000000000000000000000F2
:100C030000000000000000000000000000000000E1
:100C130000000000000000000000000007070606B7
:100C2300060604040484444444840404844444447D
:100C33008404040484C404040404844444448404F1
:100C430004040404844444448404040404048444E1
:100C5300444484040484444444840404040406068D
:100C63000606070700000000000000000000000067
:100C73000000000000000000000000000000000071
:100C83000000000000000000000000000000000061
:100C93000000000000000000000000000000000051
:100CA3000000000000101814121100000F101010A3
:100CB3000F000000101F10000000081012120D009A
:100CC300001800000D1212120D0000180000101879
:100CD300141211000010181412110000000000007B
:100CE3000000000000000000000000000000000001
:100CF30000000000000000000000000000000000F1
:100D030000000000000000000000000000000000E0
:100D130000000000000000000000000000000000D0
:100D230000000000000000000000000000000000C0
:100D330000000000000000000000000080808080B0
:100D430080808080000000000000000000000000A0
:100D53000000000000000000000000000000000090
:100D63000000000000000000000000000000000080
:100D73000000000000000000000000000000000070
:100D8300007F030C300C037F0000385454580000DC
:100D93007C04047800003C40407C0000000000001C
:100DA3000000000000000000000000000000000040
:100DB300000000000000000000000000FFAAAAAA33
:100DC300280800FF000000000000000000000000F1
:100DD3000000000000000000000000000000000010
:100DE3000000000000000000007F030C300C037FB4
:100DF3000000264949493200007F020408107F00A1
:100E03000003050911FF118905C300E000F000F894
:100E1300000000000000004428FF11AA4400000065
:100E230000000000000000000000000000000000BF
:100E330000000000000000000000000000000000AF
:100E4300000000000000000000000000000000009F
:100E5300000000000000000000008301384482927B
:100E630092740183000000000000007C44FF017DB8
:100E73007D7D7D017D7D7D7D017D7D7D7D01FF000E
:100E83000000000000010001000100010001000159
:100E9300000000000000000000010100000000004D
:100EA300000000000000000000000000000000003F
:100EB300000000000000000000000000000000002F
:100EC300000000000000000000000000000000001F
:100ED300000000000000000000000101000000000D
:100EE30000000101000000000000000000010101FA
:100EF30001010101010101010101010101010100E0
:100F030000000000000000000000000000000000DE
:100F1300000000000000000000000000000000F8D6
:100F23000808080808080800F81860800000008016
:100F33006018F80000002020F8000000000000E026
:100F4300100808080810E00000002020F800000046
:100F53000000000000000000000808080808886876
:100F63001800000000000000000000000000000066
:100F7300000000000000000000000000000000006E
:100F8300000000000000000000000000000000005E
:100F93000000000000000000000000000000007FCF
:100FA30001010101010100007F0000010618060193
:100FB30000007F00000040407F4040000000001F11
:100FC3002040404040201F00000040407F40400040
:100FD300000000006000000000000060180601002F
:100FE30000000000000000000000000000000000FE
:100FF30000000000000000000000000000000000EE
:1010030000000000000000000000000000000000DD
:1010130000000000000000000000000000000000CD
:10102300000000000040202020C00000E02020201D
:10103300E000000040E00000000060202020E0000D
:1010430000000000E0202020E0000000000040201D
:101053002020C0000040202020C00000000000002D
:10106300000000000000000000000000000000007D
:10107300000000000000000000000000000000006D
:10108300000000000000000000000000000000005D
:10109300000000000000000000000000000000004D
:1010A30000000000000C0A0A090C00000F080808E1
:1010B3000F000000080F080000000C0809090E00CB
:1010C300000C00000F0909090F00000C00000C0AB6
:1010D3000A090C00000C0A0A090C000000000000B9
:1010E30000000000000000000000000000000000FD
:1010F30000000000000000000000000000000000ED
:1011030000000000000000000000000000000000DC
:1011130000000000000000000000000000000000CC
:1011230000000000000000000000000000000000BC
:1011330000000000000000000000000080808080AC
:10114300808080800000000000000000000000009C
:10115300000000000000000000000000000000008C
:10116300000000000000000000000000000000007C
:10117300000000000000000000000000000000006C
:10118300007F030C300C037F0000385454580000D8
:101193007C04047800003C40407C00000000000018
:1011A300000000000000000000000000000000003C
:1011B300000000000000000000000000FFAAAAAA2F
:1011C300280800FF000000000000000000000000ED
:1011D300000000000000000000000000000000000C
:1011E3000000000000000000007F030C300C037FB0
:1011F3000000264949493200007F020408107F009D
:10120300E4F5B4F5B31212E61216BFC2C81216BF44
:10121300E4FBFDFF1216367B01E4FD7F1212163646
:101223007B02E4FD7F241216367B04E4FD7F481223
:1012330016367B05E4FD7F5A1216367B06E4FD7FE6
:101243006C1216367BFF7A0079037D02E4FF1215D8
:10125300E27BFF7A0079137D047F141215E27BFF92
:101263007A00791E7D06E4FF1215E27BFF7A00798E
:10127300257D067F3F1215E2900000E0FB7D067F8F
:101283003012157A900000E004F0E0D3947E40031E
:101293007420F0900000E0FB7A009000057403F0E6
:1012A300A37410F07D067F671213961217081216A7
:1012B300BF1217089000047408F0A374FFF0A3741E
:1012C3000AF074031214EF1217089000047408F064
:1012D300A374FFF0A3740EF074031214EF12170833
:0312E30002120EE6
:041708007FF47E01EB
:10170C00EF4E60157D087C07ED1DAA0470011C4A84
:09171C0070F6EF1F70EA1E80E771
:0117250022A1
:10168500F583E5822CF582E43583F583E493FF7DCC
:011695000153
:10169600ED6004D2C48002C2C4C2C3E4FEC2C7EF76
:1016A60030E704D2C68002C2C6D2C7EF25E0FF0EDD
:0816B600EEB408E9D2C3D2C46E
:0116BE002209
:1016E800AC07ED24B0FFE4FD121696EC54F0C45498
:1016F8000F4410FF121696EC540F4401FF02169681
:10174400E4FD7F8D1216967F141216967FAF021653
:0117540096FE
:10175500E4FD7F8D1216967F101216967FAE021647
:0117650096ED
:1016BF00E4FCEC24B0FFE4FD121696E4FF1216963C
:1016CF007F10121696E4FB7D01E4FF1216960BEBCA
:0816DF00B480F40CECB408DA4D
:0116E70022E0
:06157A00AA07A905AF035A
:10158000E4FCEF24E0FBEAD3947F4004E4FA090989
:10159000AF02AD011216E8E4FC75F010EBA42CF5D7
:1015A00082E435F0F583E5822453F582E583340245
:1015B00012168F0CECB408E1AF02E904FD1216E834
:1015C000E4FC75F010EBA42CF582E435F0F583E52E
:1015D00082245BF582E583340212168F0CECB4088A
:0215E000E12206
:0717260090000AEFF0A90595
:10172D007F017E00AD0119ED600C90000AE0FD7C9B
:06173D000012147280EEA0
:011743002283
:0E139600900001EFF0A3EDF0A3EAF0A3EBF05E
:1013A400E4900009F0900007F0900005E0FF900041
:1013B40007E0FEC39F4003021444C3EF9E14FD7F65
:1013C4000A121726900003E0FCA3E0FDCFCDCFCE98
:1013D400CCCE1214847C007D0A121484900008ED93
:1013E400F0A3E07030900005E014FF900007E0FEE9
:1013F400C39F5021A3E07017900006E0C3138EF042
:10140400A4FF900001E02FFFA3E0FD7B2080259046
:1014140000097401F0900006E0C313FFA3E0FEEF9F
:101424008EF0A4FF900001E02FFFA3E0FD900008E0
:10143400E02430FB12157A900007E004F00213ADAB
:011444002285
:1015E200900001EFF0A3EDF0A3EBF0A3EAF0A3E982
:0115F200F008
:1015F300E4A3F0900003E0FBA3E0FAA3E0F9A3E087
:10160300F582758300121445FB6027900001E0FF0B
:10161300A3E0FD12157A900001E02408F0E0D394D2
:10162300784007E4F0A3E02402F0900006E004F021
:0216330080C174
:011635002292
:04163600A907AA0551
:10163A00E4900001F01216E8E4FC75F040EBA424F3
:10164A0043F582E5F03408121685900001E004F0B3
:10165A000CECB410E5AF01EA04FD1216E8E4FC75DF
:10166A00F040EBA42463F582E5F034081216859065
:0A167A000001E004F00CECB410E5F0
:011684002243
:0714EF00A3F07B80E4FDFF88
:0A14F600900001EFF0900003EBF00E
:10150000E4900008F0A3F0900004E0FF5407700896
:10151000EF131313541F800A900004E013131354A5
:101520001F0490000AF090000AEDF0900004E0FF24
:1015300090000AE0FDC39F5040900001E0FF1216AA
:10154000E8E0FC900003E0FFECC39F50249000050E
:10155000E0FBA3E0FAA3E0F9A3E475F0011214D9CB
:1015600085F082F583121445FF7D011216960C80DA
:09157000D290000AE004F080B200
:01157900224F
:1012E600D2C57F647E0012170CC2C57F647E0012D1
:1012F600170CD2C5E4FD7FAE121696E4FF121696C1
:101306007F101216967F401216967F811216967FD0
:10131600CF1216967FA11216967FC81216967FA632
:101326001216967FA81216967F3F1216967FD31234
:101336001696E4FF1216967FD51216967F80121621
:10134600967FD91216967FF11216967FDA121696A6
:101356007F121216967FDB1216967F401216967F24
:10136600201216967F021216967F8D1216967F14FD
:101376001216967FA41216967FA61216967FAF12A5
:1013860016967FAF1216961216BFE4FDFF0216E8F8
:10144500BB010CE58229F582E5833AF583E022505C
:1014550006E92582F8E622BBFE06E92582F8E222A6
:0D146500E58229F582E5833AF583E49322C0
:10147200EF8DF0A4A8F0CF8CF0A428CE8DF0A42E8E
:02148200FE2248
:10148400BC000BBE0029EF8DF084FFADF022E4CC4C
:10149400F875F008EF2FFFEE33FEEC33FCEE9DEC15
:1014A400984005FCEE9DFE0FD5F0E9E4CEFD22ED5B
:1014B400F8F5F0EE8420D21CFEADF075F008EF2FA5
:1014C400FFED33FD4007985006D5F0F222C398FD96
:0514D4000FD5F0EA2233
:1014D900A3F8E0C5F025F0F0E582158270021583C6
:0614E900E0C838F0E82223
:00000001FF
